:020000040800F2
:10000000602100209D010008C91900087B16000826
:10001000C5190008E5010008811F00080000000064
:1000200000000000000000000000000005010008C2
:10003000E90100080000000049010008EF1C000869
:10004000B7010008B7010008B7010008B7010008B0
:10005000B7010008B7010008B7010008B7010008A0
:10006000B7010008B7010008B7010008B701000890
:10007000B7010008B7010008B7010008B701000880
:10008000B7010008B7010008B7010008B701000870
:10009000B7010008B7010008B7010008B701000860
:1000A000B7010008B7010008B7010008B701000850
:1000B000B7010008B7010008591D0008B701000882
:1000C000B7010008B7010008B7010008B701000830
:1000D000B7010008411F0008B7010008B701000878
:1000E000B7010008B7010008B7010008DFF810D019
:1000F00000F066F80048004775200008AFF3008064
:1001000060210020224B19680868B0E8F00F80F3E6
:100110000988BFF36F8F4FF0000080F311884EF015
:100120000D0E70470000000006480068006880F36C
:10013000088862B661B6BFF34F8FBFF36F8F00DFE1
:1001400000BF00BF08ED00E0EFF30980BFF36F8F41
:100150000F4B1A6820E9F00F106008B54FF05000FF
:1001600080F31188BFF34F8FBFF36F8F02F058FCFD
:100170004FF0000080F31188BDE808401968086856
:10018000B0E8F00F80F30988BFF36F8F704700BFAE
:1001900020000020EFF305807047000006488047EC
:1001A00006480047FEE7FEE7FEE7FEE7FEE7FEE75C
:1001B000FEE7FEE7FEE7FEE7011D0008ED00000890
:1001C000064C074D06E0E06840F0010394E80700A4
:1001D00098471034AC42F6D3FFF78CFF383700084D
:1001E0005837000800BFFEE77047000070B50446AE
:1001F000002594F82100022803D00420A0630125E3
:1002000048E02068006820F00E002168086020683F
:10021000006820F00100216808601F4920688842BA
:1002200001D1012026E01C4914312068884201D107
:1002300010201FE0184928312068884201D180151C
:1002400018E015493C312068884201D1801411E042
:10025000114950312068884202D14FF4803009E0C2
:100260000D4964312068884202D14FF4801001E0CA
:100270004FF08070084908394860012084F8210057
:1002800000BF002084F8200000BF606B10B1204642
:10029000616B8847284670BD0800024070B504466F
:1002A00000F0A0F906462546681C10B10448007805
:1002B000054400BF00F096F9801BA842FAD370BD38
:1002C000140000202DE9F8470346002294466EE111
:1002D0004FF0010808FA02F4D1F8008008EA04009F
:1002E000A0427DD1DFF8DCA2D1F80480A8EB0A0996
:1002F000D0453AD014DCB8F1030F50D009DCB8F186
:10030000000F31D0B8F1010F1CD0B8F1020F49D164
:1003100020E0B8F1110F18D0B8F1120F42D11EE051
:10032000B9F5881F25D006DCB9F5803F20D0B9F596
:10033000801F37D11AE0B9F5001F18D0B9F5041F96
:1003400030D117E0D1F80CC02DE0D1F80C8008F1C5
:10035000040C28E0D1F80C8008F1080C23E0D1F857
:100360000C8008F10C0C1EE000BF00BF00BF00BFF6
:1003700000BF00BFD1F80880B8F1000F02D14FF0E4
:10038000040C0BE0D1F80880B8F1010F03D14FF055
:10039000080C1C6102E04FF0080C5C6103E04FF0B8
:1003A000000C00E000BF00BFFF2801D8984601E024
:1003B00003F104084646FF2802D84FEA820803E00A
:1003C000A2F108084FEA88084746D6F800804FF0A7
:1003D0000F0909FA07F928EA09080CFA07F900E0F9
:1003E00088E048EA0908C6F80080D1F8048008F0DF
:1003F0008058B8F1805F7DD100BFDFF8CC81D8F89C
:10040000188048F00108DFF8C091C9F81880C84684
:10041000D8F8188008F00108CDF8008000BF00BFB0
:100420004FEAB9384FEA920958F829504FEA8278D2
:100430004FEA18794FF00F0808FA09F825EA08057D
:10044000DFF88881434502D14FF0000816E0DFF85D
:100450008081434502D14FF001080FE0DFF874813D
:10046000434502D14FF0020808E0DFF86C814345B4
:1004700002D14FF0030801E04FF004084FEA8279FF
:100480004FEA197908FA09F848EA0505DFF84C81BE
:100490004FEA920948F82950D1F8048008F48038CE
:1004A000B8F5803F0AD1DFF83881D8F8008048EAF3
:1004B0000008DFF82C91C9F8008009E0DFF82081FE
:1004C000D8F8008028EA0008DFF81491C9F8008005
:1004D000D1F8048008F40038B8F5003F10D1DFF8F7
:1004E000008108F10408D8F8008048EA0008DFF825
:1004F000F09000E05AE009F10409C9F800800DE02D
:10050000DFF8DC8008F10408D8F8008028EA000849
:10051000DFF8CC9009F10409C9F80080D1F8048013
:1005200008F48018B8F5801F0ED1DFF8B48008F108
:100530000808D8F8008048EA0008DFF8A49009F11C
:100540000809C9F800800DE0DFF8948008F1080878
:10055000D8F8008028EA0008DFF8849009F108093B
:10056000C9F80080D1F8048008F40018B8F5001F1D
:100570000ED1DFF86C8008F10C08D8F8008048EA4A
:100580000008DFF85C9009F10C09C9F800800DE063
:10059000DFF84C8008F10C08D8F8008028EA000841
:1005A000DFF83C9009F10C09C9F80080521CD1F821
:1005B000008028FA02F8B8F1000F7FF489AEBDE898
:1005C000F8870000000011100010024000080140F0
:1005D000000C0140001001400014014008000140DF
:1005E0000004014001480068704700000C00002032
:1005F00070B504460CB9012070BD94F83D0028B9CF
:10060000002084F83C00204600F080F9242084F883
:100610003D002068006820F001002168086000F0BB
:1006200065FB05465C496068884206D85B488542A0
:1006300001D2012007E0002005E05948854201D29F
:10064000012000E00020012800D1D5E75548B5FB86
:10065000F0F62068406820F03F0030432168486091
:100660004D496068884201D8701C07E04FF49670CD
:1006700070434FF47A71B0FBF1F0401C2168096AB5
:1006800021F03F01084321680862434960688842BD
:1006900014D8681E61684900B0FBF1F0401CC0F33B
:1006A0000B00042801D204203DE0681E6168490067
:1006B000B0FBF1F0401CC0F30B0034E0A06838B987
:1006C000681E616801EB4101B0FBF1F0401C0AE0DB
:1006D000681E616801EBC10202EB0111B0FBF1F091
:1006E000401C40F48040C0F30B0008B901201AE020
:1006F000A06848B9681E616801EB4101B0FBF1F0E8
:10070000401CC0F30B000CE0681E616801EBC102E5
:1007100002EB0111B0FBF1F0401CC0F30B0040F400
:10072000804040F400402168C9694CF6FF72914353
:1007300008432168C861D4E90701084321680968B2
:1007400021F0C001084321680860D4E90310084380
:100750002168896848F2FF32914308432168886024
:10076000D4E9050108432168C96821F0FF01084365
:100770002168C8602068006840F0010021680860B6
:1007800000202064202084F83D000020206384F8AD
:100790003E0000BF30E70000A086010080841E00FC
:1007A00000093D0040420F002DE9FC5F04460F4662
:1007B00090469946DDE90CAB0E9EFFF713FF054608
:1007C00094F83D0020287DD1192301224D4920466F
:1007D000009501F007F810B10220BDE8FC9F00BFB2
:1007E00094F83C00012801D10220F6E7012084F8AA
:1007F0003C0000BF2068006800F0010028B92068B4
:10080000006840F00100216808602068006820F45A
:10081000006021680860212084F83D00402084F8B1
:100820003E0000202064C4F824A0A4F82AB0608D03
:1008300020853548E0624B46424639462046CDE9A0
:10084000006500F03BFF08B10120C6E731E02A4611
:100850003146204601F06BF850B1206C042805D1D8
:100860002068006840F40070216808600120B4E747
:10087000606A007821680861606A401C6062208DAF
:10088000401E2085608D401E608520684069C0F351
:10089000800070B1208D60B1606A007821680861C5
:1008A000606A401C6062208D401E2085608D401E65
:1008B0006085208D0028CAD12A463146204600F0A6
:1008C00063FF00E01CE050B1206C042805D12068D3
:1008D000006840F400702168086001207DE720680E
:1008E000006840F4007021680860202084F83D0012
:1008F000002084F83E0000BF84F83C0000BF6CE795
:1009000002206AE7020010000000FFFF10B586B069
:100910000446002002900390049005901549206839
:10092000884225D100BF1448806940F00800124970
:1009300088610846806900F00800019000BF00BF90
:10094000C0200290122003900320059002A90B48BA
:10095000FFF7B8FC00BF0848C06940F40010064922
:10096000C8610846C06900F40010019000BF00BFD4
:1009700006B010BD0054004000100240000C0140C1
:100980000348006803490978084401490860704732
:100990000C0000201400002010B50848006840F04A
:1009A000100006490860052000F09EF80F2000F0B6
:1009B00007F800F049F8002010BD000000200240B8
:1009C00070B588B0044600250026002221461E206E
:1009D00000F04BF81E2000F038F800BF1648C06940
:1009E00040F004001449C8610846C06900F00400E2
:1009F000019000BF00BF02A903A800F04FF900F06A
:100A000075F945000D48B5FBF0F0461E0C480D4940
:100A1000086040F2E7310B48C16046600021016187
:100A2000816000F0F1FB20B9064800F008FC08B036
:100A300070BD0120FBE700000010024040420F00A3
:100A4000000800402803002070470146084600289F
:100A500009DB00F01F0301229A4043099B0003F1C8
:100A6000E023C3F8002100BF70472DE9F05F804606
:100A70000D461646002701F0BBFA074639462A46BE
:100A8000334601F00700C0F1070ABAF1040F02D99A
:100A90004FF0040A01E0C0F1070AD14600F1040A50
:100AA000BAF1070F02D24FF0000A01E0A0F1030AE9
:100AB000D4464FF0010A0AFA09FAAAF1010A0AEA31
:100AC000020A0AFA0CFA4FF0010B0BFA0CFBABF11D
:100AD000010B0BEA030B4AEA0B042146404601F0E6
:100AE0008FFABDE8F09F000000BF00F00702064B40
:100AF00019684FF6FF031940044B0B4343EA0221E8
:100B0000014B196000BF70470CED00E00000FA05D2
:100B100070B504460D460CB9012070BD5A480068F6
:100B200000F00700A8420ED25748006820F00700E6
:100B30002843554908600846006800F00700A842AD
:100B400001D00120E9E7207800F0020002281DD141
:100B5000207800F00400042805D14C48406840F497
:100B6000E0604A494860207800F00800082805D174
:100B70004648406840F460504449486043484068F3
:100B800020F0F000A168084340494860207800F058
:100B9000010078B36068012806D13C48006800F481
:100BA000003090B90120B8E76068022806D13748C4
:100BB000006800F0007040B90120AEE733480068DB
:100BC00000F0020008B90120A7E73048406820F093
:100BD0000300616808432D494860FFF703FD06469E
:100BE00009E0FFF7FFFC801B41F28831884202D9FF
:100BF000032092E707E02548406800F00C00616898
:100C0000B0EB810FEDD12048006800F00700A8424A
:100C10000ED91D48006820F0070028431A490860D3
:100C20000846006800F00700A84201D0012074E7E0
:100C3000207800F00400042807D11448406820F40C
:100C4000E060E168084311494860207800F008003E
:100C5000082808D10D48406820F46050216940EA16
:100C6000C1000A49486000F051F808494968C1F3D9
:100C70000311074A515CC8400649086006480068ED
:100C8000FFF79EFE002048E70020024000100240CF
:100C90002037000808000020100000200F2202600A
:100CA0000D4A526802F0030242600B4A526802F099
:100CB000F0028260084A526802F4E062C260064AAA
:100CC000526802F46052D2080261044A126802F0CB
:100CD00007020A6070470000001002400020024036
:100CE00001480068704700000800002000B5FFF7C9
:100CF000F7FF04494968C1F30221034A515CC84027
:100D000000BD00000010024030370008F0B585B08B
:100D10000FF26C0C9CE8E01001A8A0E8E0101CA504
:100D20002D68009500210022002300240020194D89
:100D3000696801F00C05F5B1042D02D0082D19D118
:100D400001E0154819E001ADC1F38346AC5D01F443
:100D5000803555B10F4D6D68C5F340451DF8052030
:100D60000D4D6543B5FBF2F302E00C4D04FB05F3BA
:100D7000184602E000BF084800BF00BF05B0F0BD44
:100D800002030405060708090A0B0C0D0E0F1010CC
:100D9000010200000010024000127A0000093D002C
:100DA000F8B504460CB90120F8BD207800F0010028
:100DB000002878D0F848406800F00C0004280CD0D7
:100DC000F548406800F00C00082811D1F24840684E
:100DD00000F48030B0F5803F0AD1EF48006800F49D
:100DE000003000285FD0606800285CD10120DBE77C
:100DF00000BF6068B0F5803F06D1E748006840F466
:100E00008030E549086028E0606858B9E248006829
:100E100020F48030E04908600846006820F4802013
:100E200008601AE06068B0F5A02F0BD1DA480068BE
:100E300040F48020D84908600846006840F48030BB
:100E400008600AE0D448006820F48030D249086085
:100E50000846006820F48020086000BF606888B100
:100E6000FFF7C0FB054606E0FFF7BCFB401B64280C
:100E700001D9032098E7C848006800F40030002832
:100E8000F2D010E0FFF7AEFB054606E0FFF7AAFB45
:100E9000401B642801D9032086E7BF48006800F49E
:100EA00000300028F2D1207800F00200022857D14B
:100EB000B948406800F00C0050B1B748406800F0F5
:100EC0000C00082818D1B448406800F4803098B964
:100ED000B148006800F0020020B12069012801D06B
:100EE000012061E7AC48006820F0F800616940EA41
:100EF000C100A949086033E02069E8B10120A74991
:100F00000860FFF76FFB054606E0FFF76BFB401B31
:100F1000022801D9032047E79F48006800F002003B
:100F20000028F2D09C48006820F0F800616940EA8F
:100F3000C1009949086013E0002098490860FFF754
:100F400051FB054606E0FFF74DFB401B022801D987
:100F5000032029E79048006800F002000028F2D141
:100F6000207800F0080008282DD1A069B8B1012030
:100F70008B490860FFF736FB054606E0FFF732FBBA
:100F8000401B022801D903200EE78348406A00F085
:100F900002000028F2D0012000F06AFE13E00020D9
:100FA0007F490860FFF71EFB054606E0FFF71AFBC6
:100FB000401B022801D90320F6E67748406A00F07A
:100FC00002000028F2D1207800F00400042873D138
:100FD00000277148C06900F0805070B900BF6E48AA
:100FE000C06940F080506C49C8610846C06900F093
:100FF0008050009000BF00BF01276A48006800F4DD
:101000008070B0B96748006840F480706549086036
:10101000FFF7E8FA054606E0FFF7E4FA401B64280C
:1010200001D90320C0E65F48006800F48070002802
:10103000F2D000BFE068012806D15748006A40F0AE
:1010400001005549086227E0E06858B95248006A33
:1010500020F00100504908620846006A20F00400B0
:10106000086219E0E06805280BD14B48006A40F09F
:101070000400494908620846006A40F0010008621D
:101080000AE04548006A20F001004349086208462A
:10109000006A20F00400086200BFE068A0B1FFF71A
:1010A000A1FA054609E0FFF79DFA401B41F288319D
:1010B000884202D9032077E622E03748006A00F030
:1010C00002000028EFD012E0FFF78CFA054608E096
:1010D000FFF788FA401B41F28831884201D903208A
:1010E00062E62D48006A00F002000028F0D1012FCE
:1010F00005D12948C06920F080502749C86100BF48
:10110000E069C8B32448406800F00C00082860D0AB
:10111000E069022848D1002020490866FFF762FAFA
:10112000054606E0FFF75EFA401B022801D90320BE
:101130003AE61948006800F000700028F2D1206AF1
:10114000B0F5803F07D11448406820F40030A16812
:10115000084311494860D4E9080108430E49496829
:1011600021F4741108430C49486001200B490866BA
:10117000FFF738FA054607E03DE0FFF733FA401B7A
:10118000022801D903200FE60348006800F0007030
:101190000028F2D02FE00000001002400000424280
:1011A0008004424200700040002014490866FFF7A6
:1011B00019FA054606E0FFF715FA401B022801D987
:1011C0000320F1E50E48006800F000700028F2D11D
:1011D00011E0E069012800D1E6E50948466806F417
:1011E0008031206A814204D106F47011606A814224
:1011F00001D00120D8E50020D6E5000000004242E1
:10120000001002407047704710B504460CB9012029
:1012100010BD94F83D0028B9002084F83C00204619
:1012200000F00CF8022084F83D00211D206800F039
:101230009BFD012084F83D000020E9E7704701464E
:101240000868C06840F001000B68D86008688068D2
:1012500000F00702062A05D00868006840F0010087
:101260000B68186000207047704710B5044620686E
:101270000069C0F34000D8B12068C068C0F34000E6
:10128000B0B16FF00200216808610120207720686A
:10129000806900F0030018B12046FFF7E5FF05E084
:1012A000204600F0ADF8204600F0ABF80020207793
:1012B00020680069C0F38000D8B12068C068C0F31E
:1012C0008000B0B16FF0040021680861022020772F
:1012D0002068806900F4407018B12046FFF7C4FF11
:1012E00005E0204600F08CF8204600F08AF8002047
:1012F000207720680069C0F3C000D8B12068C068BA
:10130000C0F3C000B0B16FF008002168086104208C
:1013100020772068C06900F0030018B12046FFF76D
:10132000A3FF05E0204600F06BF8204600F069F8C6
:101330000020207720680069C0F30010D8B1206831
:10134000C068C0F30010B0B16FF0100021680861F0
:10135000082020772068C06900F4407018B120464A
:10136000FFF782FF05E0204600F04AF8204600F033
:1013700048F8002020772068006900F0010058B18B
:101380002068C06800F0010030B16FF001002168F2
:101390000861204600F036F820680069C0F3C010EC
:1013A00058B12068C068C0F3C01030B16FF0800041
:1013B000216808612046FFF725FF20680069C0F317
:1013C000801058B12068C068C0F3801030B16FF051
:1013D000400021680861204600F020F8206800697C
:1013E000C0F3401058B12068C068C0F3401030B15D
:1013F0006FF02000216808612046FFF704FF10BD50
:101400007047704710B5044603492068884201D1EF
:10141000FFF7B6FA10BD00000008004070477047A3
:1014200001460022002391F8392091F83A3042EA2F
:10143000030070472DE9F0470446206805682068DE
:10144000C668206847694FF00008C14605F00F08DC
:10145000B8F1000F0AD105F0200038B106F02000E5
:1014600020B1204600F0E4FCBDE8F087B8F1000FA1
:101470006DD007F0010018B906F49070002866D00E
:1014800005F0010030B106F4807018B1E06B40F057
:101490000100E06305F0040030B107F0010018B16D
:1014A000E06B40F00200E06305F0020030B107F0AD
:1014B000010018B1E06B40F00400E06305F00800A3
:1014C00030B107F0010018B1E06B40F00800E063B4
:1014D000E06B68B305F0200028B106F0200010B1E1
:1014E000204600F0A5FC20684069C0F38019E06B3D
:1014F00000F0080010B9B9F1000F22D0204600F02A
:1015000077FC2068406900F04000B0B12068406975
:1015100020F0400021684861606B50B11748616B52
:101520004863606BFEF762FE10B1606B416B8847E9
:101530000CE02046FFF773FF08E02046FFF76FFF3F
:1015400004E02046FFF76BFF0020E0638CE705F026
:10155000800030B106F0800018B1204600F0BBFCDE
:1015600082E705F0400030B106F0400018B1204697
:1015700000F04EFC78E700BF76E70000DD1D0008B4
:1015800010B5034693F83A0020282FD101B10AB9CB
:10159000012010BD00BF93F83800012801D10220BE
:1015A000F7E7012083F8380000BF99629A85DA8551
:1015B0000020D863222083F83A0000BF002083F87F
:1015C000380000BF1868C06840F480701C68E06094
:1015D0001868406940F001001C6860611868C068C4
:1015E00040F020001C68E0600020D2E70220D0E735
:1015F0001D4A0168914236D11C49098801F4004115
:1016000089BB1A49098801F4804171B118490978E8
:101610000A2903D00021154A118024E013490988C2
:1016200041F40041114A11801DE0114909780D294A
:1016300006D10E49098841F480410C4A118012E01C
:101640000B490978094A1288C2F30D02094B9954D3
:1016500006490988491C054A118011460988C7298D
:1016600001DD002111807047003801401C0000207E
:101670001E00002068030020704700BFFEE70146FF
:1016800008684069C0F38020B0B16FF480600A68D8
:10169000506100200863202081F83D00002081F87F
:1016A0003E00086C40F00400086400BF002081F890
:1016B0003C0000BF012070470020FCE72DE9F84303
:1016C0000446884615469946DDE9086720680068A3
:1016D00040F4807021680860334600224FF0011109
:1016E0002046009700F07EF810B10120BDE8F88395
:1016F00008F0FE00216808613B4632462149204639
:1017000000F0B3F808B10120F0E700BF002000901E
:1017100020684069009020688069009000BF00BF89
:101720003A463146204600F002F950B1206C0428B8
:1017300005D12068006840F400702168086001202D
:10174000D4E7B9F1010F03D1E8B22168086117E0CD
:10175000C5F30720216808613A463146204600F06B
:10176000E6F850B1206C042805D12068006840F4E8
:101770000070216808600120B8E7E8B221680861BC
:101780000020B3E70200010070B504460D4616467E
:1017900020E02046FFF773FF08B1012070BD681CF0
:1017A000C0B1FEF71FFF801BA84200D895B90020EA
:1017B0002063202084F83D00002084F83E00206C47
:1017C00040F02000206400BF002084F83C0000BFEF
:1017D0000120E3E720684069C0F380000028D8D0EA
:1017E0000020DBE72DE9F04104460D4617461E4672
:1017F000DDF818801CE0701CD0B1FEF7F3FEA0EB02
:101800000800B04200D89EB900202063202084F850
:101810003D00002084F83E00206C40F02000206451
:1018200000BF002084F83C0000BF0120BDE8F0812B
:10183000C5F3074001280AD120684069A9B20840D1
:10184000A9B2884201D101200BE0002009E0206804
:101850008069A9B20840A9B2884201D1012000E004
:101860000020B842C7D00020E0E72DE9F04104464F
:101870000D4616461F463DE020684069C0F38020B3
:10188000E8B12068006840F40070216808606FF4D7
:1018900080602168486100202063202084F83D009A
:1018A000002084F83E00206C40F00400206400BF5B
:1018B000002084F83C0000BF0120BDE8F081701CCE
:1018C000C0B1FEF78FFEC01BB04200D896B9002011
:1018D0002063202084F83D00002084F83E00206C26
:1018E00040F02000206400BF002084F83C0000BFCE
:1018F0000120E2E7C5F3074001280AD120684069CA
:10190000A9B20840A9B2884201D101200BE0002011
:1019100009E020688069A9B20840A9B2884201D1D3
:10192000012000E000200028A6D00020C5E770B507
:1019300004460D46164620E02046FFF7A0FE08B1FB
:10194000012070BD681CC0B1FEF74CFE801BA84290
:1019500000D895B900202063202084F83D000020A5
:1019600084F83E00206C40F02000206400BF00207E
:1019700084F83C0000BF0120E3E720684069C0F321
:10198000C0100028D8D00020DBE7000010B50A48BE
:101990000A4908600A484860002108488160C1601F
:1019A0004FF480410161002141618161C1610162A7
:1019B000FEF71EFE10BD0000005400408000002015
:1019C000A086010000BFFEE7704710B5002000F0C0
:1019D00001F810BD70B50646002415E004F1B00111
:1019E000C8B200F0CFFA002000F0CCFA102000F0CE
:1019F000C9FA002504E0304600F0D6FA681CC5B2EA
:101A0000802DF8DB601CC4B2082CE7DB70BD10B57C
:101A10006420FEF743FCAE2000F0B4FA202000F072
:101A2000B1FA102000F0AEFAB02000F0ABFAC820F6
:101A300000F0A8FA002000F0A5FA102000F0A2FAA9
:101A4000402000F09FFA812000F09CFAFF2000F077
:101A500099FAA12000F096FAA62000F093FAA820A7
:101A600000F090FA3F2000F08DFAA42000F08AFAEE
:101A7000D32000F087FA002000F084FAD52000F08F
:101A800081FAF02000F07EFAD92000F07BFA2220C3
:101A900000F078FADA2000F075FA122000F072FAFD
:101AA000DB2000F06FFA202000F06CFA8D2000F0AF
:101AB00069FA142000F066FAAF2000F063FA10BD56
:101AC00070B504460D4605F1B001C8B200F05AFAEF
:101AD000102141EA141000F055FA04F00F0141F012
:101AE000010000F04FFA70BD2DE9F04707460E46A1
:101AF0009046994600250024A8F12000C5B27F2F0A
:101B000002DD0027B01CC6B2B9F1100F22D1314658
:101B10003846FFF7D5FF002407E004EB0511174A0C
:101B2000505C00F041FA601CC4B2082CF5DB701C5C
:101B3000C1B23846FFF7C4FF002408E004EB0511EA
:101B400008310E4A505C00F02FFA601CC4B2082C19
:101B5000F4DB11E031463846FFF7B2FF002409E01C
:101B600005EB4501064A02EB4101085D00F01CFA55
:101B7000601CC4B2062CF3DBBDE8F08730310008EE
:101B8000082F00082DE9F0470646894617469A4671
:101B90004FF0000800240025BAF1010F03D0BAF17C
:101BA000020F5ED125E020E0785D203800F0FF08CC
:101BB0007E2E04DD002609F1010000F0FF094946F0
:101BC0003046FFF77DFF002409E008EB4801264A74
:101BD00002EB4101085D00F0E7F9601CC4B2062C7D
:101BE000F3DBB01DC6B2681CC5B2785D0028DBD13E
:101BF00037E032E0785D203800F0FF08782E04DD11
:101C0000002609F1010000F0FF0949463046FFF7C0
:101C100057FF002407E004EB0811144A505C00F061
:101C2000C3F9601CC4B2082CF5DB09F10100C1B294
:101C30003046FFF745FF002408E004EB08110831A7
:101C40000A4A505C00F0B0F9601CC4B2082CF4DB06
:101C500006F10800C6B2681CC5B2785D0028C9D17B
:101C600000BF00BFBDE8F087082F00083031000832
:101C700008B508490968C9084FF47A72B1FBF2F156
:101C80004143009100BF00BF00994A1E0092002905
:101C9000F9D108BD0800002030B58FB005460024FA
:101CA00001200590000406900020079002200C906F
:101CB000C1030D910E9505A8FFF772F804460CB10B
:101CC00000BFFEE70F20009002200190002002904C
:101CD0004FF4806003900020049002216846FEF7D4
:101CE00017FF04460CB100BFFEE70FB030BD10B5C2
:101CF00000F0D4FF012801D000F028FF10BD000043
:101D00001148006840F001000F490860084640682B
:101D10000E4908400C494860084600680C490840D4
:101D2000094908600846006820F4802008600846D9
:101D3000406820F4FE0048604FF41F008860C8032C
:101D40000449086070470000001002400000FFF8DE
:101D5000FFFFF6FE08ED00E010B50248FFF785FA38
:101D600010BD00002803002010B50268184B9842EF
:101D700008D0B0F1804F05D0164B984202D0164BD8
:101D8000984203D122F070024B681A43104B9842DC
:101D900008D0B0F1804F05D00E4B984202D00E4BC8
:101DA000984203D122F44072CB681A4322F0800398
:101DB0004C6943EA040202608B68C3620B68836269
:101DC000034B984201D10B6903630123436110BDAA
:101DD000002C0140000400400008004070B505469A
:101DE0006C6A0020E085E0842046FFF718FB70BD98
:101DF0000168C96821F490710268D160016849697D
:101E000021F0010102685161202180F83A107047E9
:101E100010B504462068C06820F040002168C86002
:101E2000202084F839002046FFF726FC002010BD52
:101E300070B5044694F83A0022284AD1A068B0F55B
:101E4000805F13D1A56A206940B920684068C0F35B
:101E500008002880A06A801CA06219E02068406801
:101E6000C0B22880A06A401CA06211E0206938B985
:101E700020684068C1B2A26A501CA062117007E0DD
:101E80002068406800F07F01A26A501CA0621170B7
:101E9000E08D401E80B2E085C8B92068C06820F09F
:101EA00020002168C8602068C06820F48070216824
:101EB000C8602068406920F0010021684861202046
:101EC00084F83A002046FFF793FB002070BD002005
:101ED000FCE70220FAE7014691F8390021282CD1CD
:101EE0008868B0F5805F0FD10A6A1088C0F30800D7
:101EF0000B685860086918B9086A801C086209E014
:101F0000086A401C086205E00B6A581C08621878D1
:101F10000B685860C88C401E80B2C88458B90868E5
:101F2000C06820F080000B68D8600868C06840F086
:101F300040000B68D860002070470220FCE70000DA
:101F400010B500240C48FFF775FA00BF01E0641CCF
:101F500000BF0948FFF764FA2028F8D100BF002429
:101F600001E0641C00BF012204490348FFF708FB9D
:101F70000028F6D100BF10BD300400201E00002054
:101F800000BFFEE701B584B06420012104AA0B461E
:101F9000CDE900210290002278210248FEF704FCDE
:101FA00005B000BD8000002001B584B0642001218F
:101FB00004AA0B46CDE90021029040227821024874
:101FC000FEF7F2FB05B000BD800000200FB408460C
:101FD00010B5064A02A900F036F8044602A900200E
:101FE00000F042F8204610BC5DF814FB69200008A0
:101FF00002480068C0F30220704700000CED00E0CA
:1020000010B5002804DB0A07130E054A135406E036
:102010000A07140E034A00F00F031B1FD45410BD0F
:1020200000E400E018ED00E002E008C8121F08C15B
:10203000002AFAD170477047002001E001C1121F49
:10204000002AFBD170472DE9F04116460F460446A1
:10205000002503E03946B047641C6D1C2078002839
:10206000F8D12846BDE8F0810A68531C0B60107057
:10207000704700001CB5FEF78FFC4FF4E010FFF72F
:102080000BFEFFF783FC0D4800680321002380222C
:10209000CDE900100AA10D4800F072FD0C4800685F
:1020A000032100238022CDE900100AA10C4800F092
:1020B00067FD00F055FC00BFFEE7000000000020B7
:1020C0007461736B4F6C656400000000C9260008E2
:1020D000040000207461736B5F41726D00000000AA
:1020E000BD2600082DE9F04105460E461C4807684C
:1020F0001C480068001D00F00DFB50B9194800682D
:1021000090F82C100120884017490968814316482F
:102110000160681C38B936B112480168091D1348BE
:1021200000F042FB1AE07C190E4800684460BC4293
:1021300007D20C480168091D0D48006800F01AFB21
:102140000CE008480168091D0A48006800F012FB0D
:1021500009480068844201D207480460BDE8F08164
:102160003400002020000020380000204C05002012
:1021700028000020240000205000002010B5044654
:1021800000F01EFB23480068401C224908602248DA
:10219000006840B9204804600846006801280DD155
:1021A00000F03AF90AE01D48006838B91A4800689A
:1021B000C06AE16A884201D817480460184800687C
:1021C000401C1749086094F82C10012088401549DC
:1021D0000968084313490860E16A01EB8101124A6A
:1021E00002EB8100211D00F0DFFA00F013FB0B4829
:1021F000006868B108480068C06AE16A884207D28E
:102200004FF0805009490860BFF34F8FBFF36F8FC5
:1022100010BD000030000020200000203C00002005
:102220004C000020380000207004002004ED00E085
:1022300010B516E000F0C4FA0C48C068C468201D50
:1022400000F068FA0A480068401E09490860094819
:102250000068401E0749086000F0DCFA204600F0E4
:102260000BF8044800680028E4D110BD38050020B0
:10227000300000202C00002010B5044694F85100D6
:1022800030B9206B00F0E4FA204600F0E1FA1AE0E1
:1022900094F85100012803D1204600F0D9FA12E049
:1022A00094F85100022801D1012000E0002050B92B
:1022B00000BF502080F31188BFF34F8FBFF36F8FA3
:1022C00000BF00BFFEE710BD30B54FF440631748B4
:1022D00000F007042CB1C01D20F00700134C041BB4
:1022E0001B1B0246124C22600024114D6C60D0185A
:1022F000083820F007000F4C206000240D4D2D6899
:102300006C600C4D2D682C601146441A4C60094CD1
:1023100024680C60084D4C682C60084D4C682C609B
:102320004FF00044064D2C6030BD000060050020D9
:102330006800002070000020780000207400002059
:102340007C00002000BFFFF773FF064800680128EB
:10235000F9D94FF0805004490860BFF34F8FBFF3A5
:102360006F8FF0E77004002004ED00E02DE9FF5FBF
:1023700081460F469246DDE90E6B109CAAF10100E2
:10238000216B01EB800828F0070808F0070008B966
:10239000012000E0002050B900BF502080F31188D8
:1023A000BFF34F8FBFF36F8F00BF00BFFEE7002565
:1023B00007E0795D04F134004155785D00B902E031
:1023C0006D1C102DF5D300BF002143200155072EB1
:1023D00000D30626E66266640020A064201D00F09B
:1023E000C6F904F1180000F0C2F92461C6F1070033
:1023F000A06164620020E06484F8500049464046D1
:10240000039A00F049F92060BBF1000F01D0CBF82E
:102410000040BDE8FF9F000010B5002407E004EB7A
:1024200084010F4A02EB810000F094F9641C072C30
:10243000F5D30C4800F08EF90B4800F08BF90B48EF
:1024400000F088F90A4800F085F90A4800F082F99E
:1024500004480949086004480849086010BD0000A4
:1024600070040020FC04002010050020240500203A
:10247000380500204C050020240000202800002002
:1024800010B50146164800E0006803688B42FBD394
:102490000246436813448B4204D143684C6823448A
:1024A000436001460A464B6813440468A34211D1B5
:1024B0000C4C03682468A34208D04B680468646825
:1024C00023444B6003681B680B6005E0054B1B68E9
:1024D0000B6001E003680B60884200D0016010BD12
:1024E00068000020700000200A490968096809B9DD
:1024F000012100E0002121B14FF0FF31064A1160B7
:1025000006E004490968C968C868034A416811605F
:102510007047000024000020500000200E48006892
:10252000401C08B9012000E0002050B900BF502035
:1025300080F31188BFF34F8FBFF36F8F00BF00BFD1
:10254000FEE700BF502080F31188BFF34F8FBFF329
:102550006F8F00BF00BFFEE75C0000202DE9F04157
:1025600004464FF0000800F053FA4648006808B9E6
:10257000FFF7AAFE44480068204000286BD1D4B180
:10258000083404F00700B0B104F00700C0F10800FF
:10259000044404F0070008B9012000E0002050B90D
:1025A00000BF502080F31188BFF34F8FBFF36F8FB0
:1025B00000BF00BFFEE7002C4DD0344800688442C5
:1025C00049D8334E3046056801E02E462D686868CC
:1025D000A04202D228680028F7D12A480068854224
:1025E00039D0306800F10808286830606868001B3E
:1025F000102819D92F1907F0070008B9012000E0A9
:10260000002050B900BF502080F31188BFF34F8FD6
:10261000BFF36F8F00BF00BFFEE76868001B7860E4
:102620006C603846FFF72CFF184968680968081A7B
:10263000164908600846006816490968884203D2AE
:1026400012480068134908600F4968680968084320
:1026500068600020286000F0D5FB08F0070008B98A
:10266000012000E0002050B900BF502080F3118805
:10267000BFF34F8FBFF36F8F00BF00BFFEE7404631
:10268000BDE8F081700000207C0000207400002074
:102690006800002078000020001F4FF08073036066
:1026A000001F21F001030360001F034B0360143877
:1026B00002602038704700001D25000802E0142049
:1026C00000F020F9FBE700001CB5FFF7A0F9FFF7C9
:1026D0007CF900200090019008A16846FFF776FC85
:1026E00001236A4619460020FFF74CFA08236222AC
:1026F00002210020FFF7F8F900BFFEE76372656171
:102700007465204672656552544F53207461736B33
:102710000000000001460A69D1E901309860D1E962
:10272000010358605068884201D1886850600020D9
:1027300008611068401E106010687047034B03600A
:10274000034B0B608023136070470000D40000200F
:102750002801002000F1080141604FF0FF31816045
:1027600000F10801C1600161002101607047002192
:102770000161704710B502460B685C1C0CB910690A
:1027800007E002F1080000E04068446824689C42C9
:10279000FAD944684C604C68A160886041600A6165
:1027A0001468641C146010BD42684A6093688B60B2
:1027B000936859609160086103685B1C036070470F
:1027C00000BF502080F31188BFF34F8FBFF36F8F8E
:1027D00000BF0E480068401C0C49086008460068AD
:1027E000012812D10A480068C0B208B9012000E0EF
:1027F000002050B900BF502080F31188BFF34F8FE5
:10280000BFF36F8F00BF00BFFEE770475C00002082
:1028100004ED00E00D48006850B900BF502080F37F
:102820001188BFF34F8FBFF36F8F00BF00BFFEE76C
:1028300006480068401E054908600846006820B93F
:10284000002080F3118800BF00BF70475C000020AB
:1028500070B506463546002E3FD0083D2C461F4930
:1028600060680968084008B1012000E0002050B904
:1028700000BF502080F31188BFF34F8FBFF36F8FDD
:1028800000BF00BFFEE7206808B9012000E000207B
:1028900050B900BF502080F31188BFF34F8FBFF3B2
:1028A0006F8F00BF00BFFEE70C49606809680840F1
:1028B00098B1206888B909496068096888436060F0
:1028C00000F0A6F8064960680968084404490860F1
:1028D0002046FFF7D5FD00F095FA70BD7C00002082
:1028E00074000020064800684FF47A71B0FBF1F0E4
:1028F000401E4FF0E021486107200861704700004A
:102900000800002070B504460025D4B112480068C4
:1029100008B9012000E0002050B900BF502080F32A
:102920001188BFF34F8FBFF36F8F00BF00BFFEE76B
:1029300000F06EF800212046FFF7D4FB00F062FAA9
:1029400005463DB94FF0805004490860BFF34F8FF2
:10295000BFF36F8F70BD00005800002004ED00E051
:1029600010B586B000200590049003AA04A905A81C
:10297000FFF7E4FE0022DDE904101346CDE9002153
:1029800002901CA11D48039A00F02CF91C49086014
:102990000846006808B1012400E00024012C15D18C
:1029A00000BF502080F31188BFF34F8FBFF36F8FAC
:1029B00000BF4FF0FF301349086001201249086042
:1029C00000201249086000F071F810E0601C08B1A6
:1029D000012000E0002050B900BF502080F3118892
:1029E000BFF34F8FBFF36F8F00BF00BFFEE706B08E
:1029F00010BD000049444C4500000000452300087C
:102A000054000020500000203C0000203400002032
:102A100002480068401C01490860704758000020C7
:102A20001D48006818B101201C49086032E00020F0
:102A30001A4908601A480068B0FA80F0C0F11F0116
:102A400001EB8100174A52F8200008B1012000E094
:102A5000002050B900BF502080F31188BFF34F8F82
:102A6000BFF36F8F00BF00BFFEE701EB81020D4B8C
:102A700003EB820042685268426000F1080243683A
:102A8000934202D14268526842604268D268064B63
:102A90001A6000BF7047000058000020440000206A
:102AA0003800002070040020200000201CB52248BF
:102AB000014609780191FF2102461170014609780B
:102AC00000919DF8001001F050011C4A117007217F
:102AD0001B4A116009E01A490968491E184A116029
:102AE0009DF800104906090E00919DF8001001F0B4
:102AF00080018029EFD0124909680902104A11604B
:102B00001146098801F4E06111600B4A01991170C6
:102B10000C48006840F470000A49086008460068E4
:102B200040F070400860FFF7DDFE002006490860B5
:102B3000FDF7FAFA00201CBD00E400E06000002070
:102B40006400002020ED00E05C00002010B500BF14
:102B5000502080F31188BFF34F8FBFF36F8F00BFFA
:102B600000F0ACF818B14FF080500449086000BF85
:102B7000002080F3118800BF10BD000004ED00E0CC
:102B80002DE9FF4F85B0804689461746DDE912AB37
:102B9000B800FFF7E3FC064656B15420FFF7DEFC11
:102BA00004460CB1266304E03046FFF751FE00E016
:102BB00000248CB1002084F85100CDE900ABCDE9B0
:102BC00002403A4649464046089BFFF7CFFB204665
:102BD000FFF7D4FA012501E04FF0FF35284609B090
:102BE000BDE8F08F2DE9F04F85B007468846914645
:102BF0009A46DDE90EB6109C0EB1012000E00020DF
:102C000050B900BF502080F31188BFF34F8FBFF33E
:102C10006F8F00BF00BFFEE70CB1012000E0002075
:102C200050B900BF502080F31188BFF34F8FBFF31E
:102C30006F8F00BF00BFFEE7542003900398542815
:102C400001D1012000E0002050B900BF502080F3E6
:102C50001188BFF34F8FBFF36F8F00BF00BFFEE738
:102C6000B4B1AEB125462C462E63022085F8510042
:102C7000002004A953464A46CDE900B1CDE90250EF
:102C800041463846FFF772FB2846FFF777FA01E026
:102C900000200490049805B0BDE8F08F054909684C
:102CA00009B9012005E00449096809B9022000E0DA
:102CB000002070473C000020580000202DE9F04122
:102CC0004FF0000844480068002877D14348006866
:102CD000451C4248056015BB41480068006808B9BA
:102CE000012000E0002050B900BF502080F311887F
:102CF000BFF34F8FBFF36F8F00BF00BFFEE73848B1
:102D00000768384800683649086036480760364822
:102D10000068401C34490860FFF7E6FB00BF3348F9
:102D2000006885423CD300BF2D480068006808B9A0
:102D3000012000E0002020B14FF0FF302B49086057
:102D40002DE027480068C068C4686668B54202D2B2
:102D50002648066023E0201DFFF7DCFCA06A18B1BE
:102D600004F11800FFF7D6FC94F82C1001208840DD
:102D70001F49096808431E490860E16A01EB8101A7
:102D80001C4A02EB8100211DFFF70EFD1A49E06A83
:102D90000968C96A8842C7D34FF00108C4E700BF79
:102DA00015480068C06A00EB8000124951F8200005
:102DB000012801D94FF0010805E0FFE70F4800683E
:102DC000401C0E4908600E48006808B14FF0010829
:102DD0004046BDE8F081000058000020340000208B
:102DE000240000202800002048000020500000207F
:102DF0003800002070040020200000204000002047
:102E00004400002070B5002400263648006850B900
:102E100000BF502080F31188BFF34F8FBFF36F8F37
:102E200000BF00BFFEE7FFF7CBFC2E480068401E46
:102E30002C4908600846006800284FD12A480068DD
:102E400000284BD024E02948C068C46804F1180069
:102E5000FFF760FC201DFFF75DFC94F82C100120AB
:102E6000884023490968084321490860E16A01EB69
:102E70008101204A02EB8100211DFFF795FC1E49CC
:102E8000E06A0968C96A884202D301201B490860C8
:102E90001648006808B9012000E000200028D2D0C0
:102EA0000CB1FFF721FB1648056865B100BFFFF7BD
:102EB00005FF10B10120114908606D1E002DF6D1EB
:102EC00000200F4908600D48006838B1012630071E
:102ED0000C490860BFF34F8FBFF36F8FFFF79AFC69
:102EE000304670BD5800002030000020240500202E
:102EF0003800002070040020200000204400002042
:102F00004000002004ED00E0000000000000000090
:102F1000002F000000000700070000147F147F143A
:102F200000242A7F2A1200626408132300364955C0
:102F3000225000000503000000001C224100000098
:102F400041221C000014083E08140008083E08082E
:102F5000000000A060000008080808080000606089
:102F60000000002010080402003E5149453E0000C8
:102F7000427F4000004261514946002141454B31AA
:102F8000001814127F10002745454539003C4A4976
:102F900049300001710905030036494949360006E8
:102FA0004949291E00003636000000005636000050
:102FB00000081422410000141414141400004122CB
:102FC000140800020151090600324959513E007CA3
:102FD0001211127C007F49494936003E414141228D
:102FE000007F4141221C007F49494941007F090976
:102FF0000901003E4149497A007F0808087F000026
:10300000417F4100002040413F01007F08142241E0
:10301000007F40404040007F020C027F007F040898
:10302000107F003E4141413E007F09090906003EF4
:103030004151215E007F091929460046494949311D
:103040000001017F0101003F4040403F001F204040
:10305000201F003F4038403F0063140814630007FE
:103060000870080700615149454300007F41410055
:1030700000552A552A55000041417F0000040201F5
:1030800002040040404040400000010204000020D3
:1030900054545478007F4844443800384444442011
:1030A00000384444487F00385454541800087E09BE
:1030B00001020018A4A4A47C007F08040478000086
:1030C000447D4000004080847D00007F1028440043
:1030D0000000417F4000007C04180478007C080454
:1030E000047800384444443800FC24242418001890
:1030F000242418FC007C080404080048545454207C
:1031000000043F444020003C4040207C001C204004
:10311000201C003C4030403C004428102844001C47
:10312000A0A0A07C004464544C441414141414143F
:10313000000000000000000000000000000000008F
:10314000000000F800000000000000333000000024
:1031500000100C06100C060000000000000000002B
:1031600040C07840C0784000043F04043F0404009D
:10317000007088FC08300000001820FF211E0000AD
:10318000F008F000E018000000211C031E211E00C2
:1031900000F00888700000001E2123241927211048
:1031A00010160E00000000000000000000000000EB
:1031B000000000E018040200000000071820400092
:1031C00000020418E0000000004020180700000082
:1031D000404080F0804040000202010F01020200E6
:1031E000000000F0000000000101011F01010100CA
:1031F000000000000000000080B07000000000002F
:1032000000000000000000000001010101010101B7
:10321000000000000000000000303000000000004E
:103220000000000080601804006018060100000023
:1032300000E010080810E000000F102020100F0020
:10324000001010F8000000000020203F20200000A7
:1032500000700808088870000030282422213000FF
:1032600000300888884830000018202020110E0007
:103270000000C02010F8000000070424243F2400B0
:1032800000F80888880808000019212020110E0085
:1032900000E0108888180000000F112020110E0097
:1032A00000380808C83808000000003F000000008F
:1032B0000070880808887000001C222121221C0050
:1032C00000E010080810E0000000312222110F0079
:1032D000000000C0C000000000000030300000000E
:1032E000000000800000000000008060000000007E
:1032F0000000804020100800000102040810200097
:1033000040404040404040000404040404040400E1
:103310000008102040800000002010080402010076
:10332000007048080808F000000000303601000076
:10333000C030C828E810E0000718272423140B0029
:103340000000C038E0000000203C230202273820A3
:1033500008F8888888700000203F202020110E0087
:10336000C03008080808380007182020201008007E
:1033700008F808080810E000203F202020100F0067
:1033800008F88888E8081000203F20202320180033
:1033900008F88888E8081000203F2000030000009B
:1033A000C03008080838000007182020221E02003C
:1033B00008F808000008F808203F210101213F20FB
:1033C000000808F8080800000020203F2020000026
:1033D00000000808F8080800C08080807F00000016
:1033E00008F888C028180800203F2001263820004F
:1033F00008F8080000000000203F202020203000B6
:1034000008F8F800F8F80800203F003F003F2000CF
:1034100008F830C00008F808203F200007183F00D7
:10342000E01008080810E0000F10202020100F0006
:1034300008F808080808F000203F210101010000F9
:10344000E01008080810E0000F18242438504F003E
:1034500008F8888888887000203F2000030C3020FE
:1034600000708808080838000038202121221C003C
:10347000180808F8080818000000203F2000000085
:1034800008F808000008F808001F202020201F006E
:103490000878880000C83808000007380E010000CE
:1034A000F80800F80008F800033C0700073C030098
:1034B000081868808068180820302C03032C3020FE
:1034C0000838C800C83808000000203F200000006D
:1034D00010080808C83808002038262120201800C5
:1034E000000000FE020202000000007F4040400099
:1034F000000C30C000000000000000010638C000D1
:1035000000020202FE000000004040407F00000078
:10351000000004020202040000000000000000009D
:10352000000000000000000080808080808080809B
:103530000002020400000000000000000000000083
:1035400000008080808000000019242222223F2079
:1035500008F8008080000000003F112020110E00BC
:103560000000008080800000000E1120202011004B
:10357000000000808088F800000E112020103F20FD
:103580000000808080800000001F22222222130081
:10359000008080F0888888180020203F20200000CC
:1035A0000000808080808000006B94949493600081
:1035B00008F8008080800000203F210000203F208C
:1035C00000809898000000000020203F202000008C
:1035D000000000809898000000C08080807F00007C
:1035E00008F8000080808000203F24022D30200059
:1035F000000808F8000000000020203F2020000004
:103600008080808080808000203F20003F20003F1D
:103610008080008080800000203F210000203F202B
:103620000000808080800000001F202020201F00DC
:10363000808000808000000080FFA12020110E000B
:103640000000008080808000000E112020A0FF80FC
:10365000808080008080800020203F2120000100A9
:1036600000008080808080000033242424241900FE
:10367000008080E0808000000000001F202000000B
:103680008080000000808000001F202020103F204C
:10369000808080000080808000010E3008060100DC
:1036A00080800080008080800F300C030C300F0081
:1036B00000808000808080000020312E0E312000AC
:1036C000808080000080808080818E7018060100DC
:1036D00000808080808080000021302C22213000FA
:1036E00000000000807C020200000000003F40401B
:1036F00000000000FF00000000000000FF000000CC
:103700000002027C800000000040403F00000000FA
:103710000006010102020404000000000000000095
:103720000000000000000000010203040607080971
:1037300000000000010203045837000800000020C8
:103740008000000028200008D837000880000020F2
:10375000E020000038200008000000000000000009
:103760000024F40000000000100000000100000030
:103770000000000000000000000000000000000049
:103780000000000000000000000000000000000039
:103790000000000000000000000000000000000029
:1037A0000000000000000000000000000000000019
:1037B00000000000AAAAAAAA000000000000000061
:1037C00000000000000000000000000000000000F9
:0837D0000000000000000000F1
:04000005080000ED02
:00000001FF
